{
    "contractName": "MystDEX",
    "abi": [
        {
            "inputs": [],
            "stateMutability": "nonpayable",
            "type": "constructor"
        },
        {
            "anonymous": false,
            "inputs": [
                {
                    "indexed": true,
                    "internalType": "address",
                    "name": "previousDestination",
                    "type": "address"
                },
                {
                    "indexed": true,
                    "internalType": "address",
                    "name": "newDestination",
                    "type": "address"
                }
            ],
            "name": "DestinationChanged",
            "type": "event"
        },
        {
            "anonymous": false,
            "inputs": [
                {
                    "indexed": true,
                    "internalType": "address",
                    "name": "previousOwner",
                    "type": "address"
                },
                {
                    "indexed": true,
                    "internalType": "address",
                    "name": "newOwner",
                    "type": "address"
                }
            ],
            "name": "OwnershipTransferred",
            "type": "event"
        },
        {
            "inputs": [],
            "name": "claimEthers",
            "outputs": [],
            "stateMutability": "nonpayable",
            "type": "function"
        },
        {
            "inputs": [
                {
                    "internalType": "address",
                    "name": "_token",
                    "type": "address"
                }
            ],
            "name": "claimTokens",
            "outputs": [],
            "stateMutability": "nonpayable",
            "type": "function"
        },
        {
            "inputs": [],
            "name": "getFundsDestination",
            "outputs": [
                {
                    "internalType": "address",
                    "name": "",
                    "type": "address"
                }
            ],
            "stateMutability": "view",
            "type": "function"
        },
        {
            "inputs": [],
            "name": "initialised",
            "outputs": [
                {
                    "internalType": "bool",
                    "name": "",
                    "type": "bool"
                }
            ],
            "stateMutability": "view",
            "type": "function"
        },
        {
            "inputs": [],
            "name": "owner",
            "outputs": [
                {
                    "internalType": "address",
                    "name": "",
                    "type": "address"
                }
            ],
            "stateMutability": "view",
            "type": "function"
        },
        {
            "inputs": [],
            "name": "renounceOwnership",
            "outputs": [],
            "stateMutability": "nonpayable",
            "type": "function"
        },
        {
            "inputs": [
                {
                    "internalType": "address payable",
                    "name": "_newDestination",
                    "type": "address"
                }
            ],
            "name": "setFundsDestination",
            "outputs": [],
            "stateMutability": "nonpayable",
            "type": "function"
        },
        {
            "inputs": [],
            "name": "token",
            "outputs": [
                {
                    "internalType": "contract IERC20Token",
                    "name": "",
                    "type": "address"
                }
            ],
            "stateMutability": "view",
            "type": "function"
        },
        {
            "inputs": [
                {
                    "internalType": "address",
                    "name": "",
                    "type": "address"
                },
                {
                    "internalType": "address",
                    "name": "",
                    "type": "address"
                },
                {
                    "internalType": "address",
                    "name": "",
                    "type": "address"
                },
                {
                    "internalType": "uint256",
                    "name": "",
                    "type": "uint256"
                },
                {
                    "internalType": "bytes",
                    "name": "",
                    "type": "bytes"
                },
                {
                    "internalType": "bytes",
                    "name": "",
                    "type": "bytes"
                }
            ],
            "name": "tokensReceived",
            "outputs": [],
            "stateMutability": "nonpayable",
            "type": "function"
        },
        {
            "inputs": [
                {
                    "internalType": "address",
                    "name": "newOwner",
                    "type": "address"
                }
            ],
            "name": "transferOwnership",
            "outputs": [],
            "stateMutability": "nonpayable",
            "type": "function"
        },
        {
            "stateMutability": "payable",
            "type": "receive"
        },
        {
            "inputs": [
                {
                    "internalType": "address",
                    "name": "_dexOwner",
                    "type": "address"
                },
                {
                    "internalType": "address",
                    "name": "_token",
                    "type": "address"
                },
                {
                    "internalType": "uint256",
                    "name": "_rate",
                    "type": "uint256"
                }
            ],
            "name": "initialise",
            "outputs": [],
            "stateMutability": "nonpayable",
            "type": "function"
        },
        {
            "inputs": [
                {
                    "internalType": "uint256",
                    "name": "_newRate",
                    "type": "uint256"
                }
            ],
            "name": "setRate",
            "outputs": [],
            "stateMutability": "nonpayable",
            "type": "function"
        },
        {
            "inputs": [
                {
                    "internalType": "address payable",
                    "name": "_to",
                    "type": "address"
                },
                {
                    "internalType": "uint256",
                    "name": "_amount",
                    "type": "uint256"
                }
            ],
            "name": "transferEthers",
            "outputs": [],
            "stateMutability": "nonpayable",
            "type": "function"
        },
        {
            "inputs": [
                {
                    "internalType": "address",
                    "name": "_to",
                    "type": "address"
                },
                {
                    "internalType": "uint256",
                    "name": "_amount",
                    "type": "uint256"
                }
            ],
            "name": "transferMyst",
            "outputs": [],
            "stateMutability": "nonpayable",
            "type": "function"
        }
    ],
    "bytecode": "0x608060405234801561001057600080fd5b5060408051808201909152601581527f455243373737546f6b656e73526563697069656e740000000000000000000000602082015261004f9030610054565b610147565b6000826040516020018082805190602001908083835b602083106100895780518252601f19909201916020918201910161006a565b51815160209384036101000a60001901801990921691161790526040805192909401828103601f19018352808552825192909101919091206329965a1d60e01b8252306004830152602482018190526001600160a01b03881660448301529251929550731820a4b7618bde71dce8cdc73aab6c95905fad2494506329965a1d9350606480820193600093509182900301818387803b15801561012a57600080fd5b505af115801561013e573d6000803e3d6000fd5b50505050505050565b610f93806101566000396000f3fe6080604052600436106100e05760003560e01c8063715018a61161007f578063df8de3e711610059578063df8de3e71461050a578063f2fde38b1461053d578063f58c5b6e14610570578063fc0c546a1461058557610276565b8063715018a6146104815780638595d149146104965780638da5cb5b146104d957610276565b8063238e130a116100bb578063238e130a146103d657806334fcf4371461040957806338d2e411146104335780636931b5501461046c57610276565b806223de291461027b57806307003bb4146103745780631254e64d1461039d57610276565b3661027657600254600160a01b900460ff16610143576040805162461bcd60e51b815260206004820152601b60248201527f436f6e7472616374206973206e6f7420696e697469616c697365640000000000604482015290519081900360640190fd5b600061016c670de0b6b3a76400006101666003543461059a90919063ffffffff16565b906105e5565b600254604080516370a0823160e01b8152306004820152905192935083926001600160a01b03909216916370a0823191602480820192602092909190829003018186803b1580156101bc57600080fd5b505afa1580156101d0573d6000803e3d6000fd5b505050506040513d60208110156101e657600080fd5b505110156101f357600080fd5b6002546040805163a9059cbb60e01b81523360048201526024810184905290516001600160a01b039092169163a9059cbb916044808201926020929091908290030181600087803b15801561024757600080fd5b505af115801561025b573d6000803e3d6000fd5b505050506040513d602081101561027157600080fd5b505050005b600080fd5b34801561028757600080fd5b50610372600480360360c081101561029e57600080fd5b6001600160a01b03823581169260208101358216926040820135909216916060820135919081019060a0810160808201356401000000008111156102e157600080fd5b8201836020820111156102f357600080fd5b8035906020019184600183028401116401000000008311171561031557600080fd5b91939092909160208101903564010000000081111561033357600080fd5b82018360208201111561034557600080fd5b8035906020019184600183028401116401000000008311171561036757600080fd5b50909250905061063e565b005b34801561038057600080fd5b50610389610648565b604080519115158252519081900360200190f35b3480156103a957600080fd5b50610372600480360360408110156103c057600080fd5b506001600160a01b038135169060200135610658565b3480156103e257600080fd5b50610372600480360360208110156103f957600080fd5b50356001600160a01b0316610749565b34801561041557600080fd5b506103726004803603602081101561042c57600080fd5b5035610819565b34801561043f57600080fd5b506103726004803603604081101561045657600080fd5b506001600160a01b03813516906020013561087f565b34801561047857600080fd5b50610372610a2f565b34801561048d57600080fd5b50610372610a80565b3480156104a257600080fd5b50610372600480360360608110156104b957600080fd5b506001600160a01b03813581169160208101359091169060400135610b2b565b3480156104e557600080fd5b506104ee610bcb565b604080516001600160a01b039092168252519081900360200190f35b34801561051657600080fd5b506103726004803603602081101561052d57600080fd5b50356001600160a01b0316610bda565b34801561054957600080fd5b506103726004803603602081101561056057600080fd5b50356001600160a01b0316610d10565b34801561057c57600080fd5b506104ee610e11565b34801561059157600080fd5b506104ee610e20565b60006105dc83836040518060400160405280601a81526020017f536166654d6174683a206469766973696f6e206279207a65726f000000000000815250610e2f565b90505b92915050565b6000826105f4575060006105df565b8282028284828161060157fe5b04146105dc5760405162461bcd60e51b8152600401808060200182810382526021815260200180610f1d6021913960400191505060405180910390fd5b5050505050505050565b600254600160a01b900460ff1681565b6000546001600160a01b031633148061067a57506000546001600160a01b0316155b6106b9576040805162461bcd60e51b81526020600482018190526024820152600080516020610f3e833981519152604482015290519081900360640190fd5b8047101561070e576040805162461bcd60e51b815260206004820152601860248201527f6e6f7420656e6f7567682065746865722062616c616e63650000000000000000604482015290519081900360640190fd5b6040516001600160a01b0383169082156108fc029083906000818181858888f19350505050158015610744573d6000803e3d6000fd5b505050565b6000546001600160a01b031633148061076b57506000546001600160a01b0316155b6107aa576040805162461bcd60e51b81526020600482018190526024820152600080516020610f3e833981519152604482015290519081900360640190fd5b6001600160a01b0381166107bd57600080fd5b6001546040516001600160a01b038084169216907fe1a66d77649cf0a57b9937073549f30f1c82bb865aaf066d2f299e37a62c6aad90600090a3600180546001600160a01b0319166001600160a01b0392909216919091179055565b6000546001600160a01b031633148061083b57506000546001600160a01b0316155b61087a576040805162461bcd60e51b81526020600482018190526024820152600080516020610f3e833981519152604482015290519081900360640190fd5b600355565b6000546001600160a01b03163314806108a157506000546001600160a01b0316155b6108e0576040805162461bcd60e51b81526020600482018190526024820152600080516020610f3e833981519152604482015290519081900360640190fd5b600254604080516370a0823160e01b8152306004820152905183926001600160a01b0316916370a08231916024808301926020929190829003018186803b15801561092a57600080fd5b505afa15801561093e573d6000803e3d6000fd5b505050506040513d602081101561095457600080fd5b505110156109a9576040805162461bcd60e51b815260206004820152601760248201527f6e6f7420656e6f756768206d7973742062616c616e6365000000000000000000604482015290519081900360640190fd5b6002546040805163a9059cbb60e01b81526001600160a01b038581166004830152602482018590529151919092169163a9059cbb9160448083019260209291908290030181600087803b1580156109ff57600080fd5b505af1158015610a13573d6000803e3d6000fd5b505050506040513d6020811015610a2957600080fd5b50505050565b6001546001600160a01b0316610a4457600080fd5b6001546040516001600160a01b03909116904780156108fc02916000818181858888f19350505050158015610a7d573d6000803e3d6000fd5b50565b6000546001600160a01b0316331480610aa257506000546001600160a01b0316155b610ae1576040805162461bcd60e51b81526020600482018190526024820152600080516020610f3e833981519152604482015290519081900360640190fd5b600080546040516001600160a01b03909116907f8be0079c531659141344cd1fd0a4f28419497f9722a3daafe3b4186f6b6457e0908390a3600080546001600160a01b0319169055565b600254600160a01b900460ff1615610b8a576040805162461bcd60e51b815260206004820152601f60248201527f436f6e747261637420697320616c726561647920696e697469616c6973656400604482015290519081900360640190fd5b610b9383610d10565b60028054600392909255600160a01b6001600160a01b03199092166001600160a01b03939093169290921760ff60a01b191617905550565b6000546001600160a01b031690565b6001546001600160a01b0316610bef57600080fd5b6002546001600160a01b0382811691161415610c3c5760405162461bcd60e51b8152600401808060200182810382526025815260200180610ef86025913960400191505060405180910390fd5b6000816001600160a01b03166370a08231306040518263ffffffff1660e01b815260040180826001600160a01b0316815260200191505060206040518083038186803b158015610c8b57600080fd5b505afa158015610c9f573d6000803e3d6000fd5b505050506040513d6020811015610cb557600080fd5b50516001546040805163a9059cbb60e01b81526001600160a01b0392831660048201526024810184905290519293509084169163a9059cbb916044808201926020929091908290030181600087803b1580156109ff57600080fd5b6000546001600160a01b0316331480610d3257506000546001600160a01b0316155b610d71576040805162461bcd60e51b81526020600482018190526024820152600080516020610f3e833981519152604482015290519081900360640190fd5b6001600160a01b038116610db65760405162461bcd60e51b8152600401808060200182810382526026815260200180610ed26026913960400191505060405180910390fd5b600080546040516001600160a01b03808516939216917f8be0079c531659141344cd1fd0a4f28419497f9722a3daafe3b4186f6b6457e091a3600080546001600160a01b0319166001600160a01b0392909216919091179055565b6001546001600160a01b031690565b6002546001600160a01b031681565b60008183610ebb5760405162461bcd60e51b81526004018080602001828103825283818151815260200191508051906020019080838360005b83811015610e80578181015183820152602001610e68565b50505050905090810190601f168015610ead5780820380516001836020036101000a031916815260200191505b509250505060405180910390fd5b506000838581610ec757fe5b049594505050505056fe4f776e61626c653a206e6577206f776e657220697320746865207a65726f20616464726573736e617469766520746f6b656e2066756e64732063616e2774206265207265636f7665726564536166654d6174683a206d756c7469706c69636174696f6e206f766572666c6f774f776e61626c653a2063616c6c6572206973206e6f7420746865206f776e6572a26469706673582212203d1caaee76577de2c16167bc89d200e7396475cd5f665a3ac578fd0d8d26246c64736f6c634300060c0033",
    "immutableReferences": {},
    "source": "// SPDX-License-Identifier: GPL-3.0\npragma solidity >=0.6.0 <0.7.0;\n\nimport { SafeMath } from \"@openzeppelin/contracts/math/SafeMath.sol\";\nimport { IERC20Token } from \"./interfaces/IERC20Token.sol\";\nimport { FundsRecovery } from \"./FundsRecovery.sol\";\nimport { Ownable } from \"./Ownable.sol\";\nimport { ERC1820Client } from \"./utils/ERC1820Client.sol\";\n\ncontract MystDEX is Ownable, FundsRecovery, ERC1820Client {\n    using SafeMath for uint256;\n\n    bool public initialised;\n    uint256 rate;   // Wei per token\n\n    constructor() public {\n        // Register as ERC777 recipient\n        setInterfaceImplementation(\"ERC777TokensRecipient\", address(this));\n    }\n\n    // Default function - converts ethers to MYST\n    receive() external payable {\n        require(initialised, \"Contract is not initialised\");\n\n        uint256 tokensAmount = msg.value.div(rate).mul(1e18);\n\n        require(token.balanceOf(address(this)) >= tokensAmount);\n        token.transfer(msg.sender, tokensAmount);\n    }\n\n    // Because of proxy pattern this function is used insted of constructor.\n    // Have to be called right after proxy deployment.\n    function initialise(address _dexOwner, address _token, uint256 _rate) public {\n        require(!initialised, \"Contract is already initialised\");\n        transferOwnership(_dexOwner);\n        token = IERC20Token(_token);\n        rate = _rate;\n        initialised = true;\n    }\n\n    function setRate (uint256 _newRate) public onlyOwner {\n        rate = _newRate;\n    }\n\n    // Transfers selected tokens into tokens destination address.\n    function transferEthers(address payable _to, uint256 _amount) external onlyOwner {\n        require(address(this).balance >= _amount, \"not enough ether balance\");\n        _to.transfer(_amount);\n    }\n\n    function transferMyst(address _to, uint256 _amount) external onlyOwner {\n        require(token.balanceOf(address(this)) >= _amount,\"not enough myst balance\");\n        token.transfer(_to, _amount);\n    }\n}\n",
    "sourcePath": "/src/contracts/MystDEX.sol",
    "compiler": {
        "name": "solc",
        "version": "0.6.12+commit.27d51765.Emscripten.clang"
    },
    "schemaVersion": "3.2.1",
    "updatedAt": "2020-07-30T09:29:26.922Z",
    "devdoc": {
        "kind": "dev",
        "methods": {},
        "version": 1
    },
    "userdoc": {
        "kind": "user",
        "methods": {
            "claimEthers()": {
                "notice": "Possibility to recover funds in case they were sent to this address before smart contract deployment"
            },
            "claimTokens(address)": {
                "notice": "Transfers selected tokens into owner address."
            },
            "getFundsDestination()": {
                "notice": "Getting funds destination address."
            },
            "setFundsDestination(address)": {
                "notice": "Setting new destination of funds recovery."
            },
            "tokensReceived(address,address,address,uint256,bytes,bytes)": {
                "notice": "Callback for received ERC777 tokens"
            }
        },
        "version": 1
    }
}